{
  "contractName": "EnergyDataContract",
  "abi": [
    {
      "inputs": [],
      "stateMutability": "nonpayable",
      "type": "constructor"
    },
    {
      "anonymous": false,
      "inputs": [
        {
          "indexed": true,
          "internalType": "bytes32",
          "name": "id",
          "type": "bytes32"
        }
      ],
      "name": "ChainlinkCancelled",
      "type": "event"
    },
    {
      "anonymous": false,
      "inputs": [
        {
          "indexed": true,
          "internalType": "bytes32",
          "name": "id",
          "type": "bytes32"
        }
      ],
      "name": "ChainlinkFulfilled",
      "type": "event"
    },
    {
      "anonymous": false,
      "inputs": [
        {
          "indexed": true,
          "internalType": "bytes32",
          "name": "id",
          "type": "bytes32"
        }
      ],
      "name": "ChainlinkRequested",
      "type": "event"
    },
    {
      "anonymous": false,
      "inputs": [
        {
          "indexed": true,
          "internalType": "bytes32",
          "name": "requestId",
          "type": "bytes32"
        },
        {
          "indexed": true,
          "internalType": "uint256",
          "name": "_unitsProduced",
          "type": "uint256"
        }
      ],
      "name": "RequestFulfilled",
      "type": "event"
    },
    {
      "inputs": [
        {
          "internalType": "uint256",
          "name": "",
          "type": "uint256"
        }
      ],
      "name": "consumptionDataPoints",
      "outputs": [
        {
          "internalType": "uint256",
          "name": "timestamp",
          "type": "uint256"
        },
        {
          "internalType": "uint256",
          "name": "value",
          "type": "uint256"
        }
      ],
      "stateMutability": "view",
      "type": "function",
      "constant": true
    },
    {
      "inputs": [
        {
          "internalType": "address",
          "name": "",
          "type": "address"
        }
      ],
      "name": "energyData",
      "outputs": [
        {
          "internalType": "uint256",
          "name": "productionTimestamp",
          "type": "uint256"
        },
        {
          "internalType": "uint256",
          "name": "unitsProduced",
          "type": "uint256"
        },
        {
          "internalType": "uint256",
          "name": "consumptionTimestamp",
          "type": "uint256"
        },
        {
          "internalType": "uint256",
          "name": "unitsConsumed",
          "type": "uint256"
        }
      ],
      "stateMutability": "view",
      "type": "function",
      "constant": true
    },
    {
      "inputs": [
        {
          "internalType": "uint256",
          "name": "",
          "type": "uint256"
        }
      ],
      "name": "productionDataPoints",
      "outputs": [
        {
          "internalType": "uint256",
          "name": "timestamp",
          "type": "uint256"
        },
        {
          "internalType": "uint256",
          "name": "value",
          "type": "uint256"
        }
      ],
      "stateMutability": "view",
      "type": "function",
      "constant": true
    },
    {
      "inputs": [],
      "name": "requestEnergyProductionData",
      "outputs": [],
      "stateMutability": "nonpayable",
      "type": "function"
    },
    {
      "inputs": [
        {
          "internalType": "bytes32",
          "name": "_requestId",
          "type": "bytes32"
        },
        {
          "internalType": "uint256",
          "name": "_unitsProduced",
          "type": "uint256"
        }
      ],
      "name": "fulfillEnergyProductionData",
      "outputs": [],
      "stateMutability": "nonpayable",
      "type": "function"
    },
    {
      "inputs": [],
      "name": "requestEnergyConsumptionData",
      "outputs": [],
      "stateMutability": "nonpayable",
      "type": "function"
    },
    {
      "inputs": [
        {
          "internalType": "bytes32",
          "name": "_requestId",
          "type": "bytes32"
        },
        {
          "internalType": "uint256",
          "name": "_unitsConsumed",
          "type": "uint256"
        }
      ],
      "name": "fulfillEnergyConsumptionData",
      "outputs": [],
      "stateMutability": "nonpayable",
      "type": "function"
    },
    {
      "inputs": [
        {
          "internalType": "address",
          "name": "_address",
          "type": "address"
        }
      ],
      "name": "getUserEnergyData",
      "outputs": [
        {
          "internalType": "uint256",
          "name": "",
          "type": "uint256"
        },
        {
          "internalType": "uint256",
          "name": "",
          "type": "uint256"
        },
        {
          "internalType": "uint256",
          "name": "",
          "type": "uint256"
        },
        {
          "internalType": "uint256",
          "name": "",
          "type": "uint256"
        }
      ],
      "stateMutability": "view",
      "type": "function",
      "constant": true
    },
    {
      "inputs": [],
      "name": "getProductionDataPoints",
      "outputs": [
        {
          "components": [
            {
              "internalType": "uint256",
              "name": "timestamp",
              "type": "uint256"
            },
            {
              "internalType": "uint256",
              "name": "value",
              "type": "uint256"
            }
          ],
          "internalType": "struct EnergyDataContract.DataPoint[]",
          "name": "",
          "type": "tuple[]"
        }
      ],
      "stateMutability": "view",
      "type": "function",
      "constant": true
    },
    {
      "inputs": [],
      "name": "getConsumptionDataPoints",
      "outputs": [
        {
          "components": [
            {
              "internalType": "uint256",
              "name": "timestamp",
              "type": "uint256"
            },
            {
              "internalType": "uint256",
              "name": "value",
              "type": "uint256"
            }
          ],
          "internalType": "struct EnergyDataContract.DataPoint[]",
          "name": "",
          "type": "tuple[]"
        }
      ],
      "stateMutability": "view",
      "type": "function",
      "constant": true
    },
    {
      "inputs": [],
      "name": "getLatestEthUsdPrice",
      "outputs": [
        {
          "internalType": "int256",
          "name": "",
          "type": "int256"
        }
      ],
      "stateMutability": "view",
      "type": "function",
      "constant": true
    },
    {
      "inputs": [
        {
          "internalType": "string",
          "name": "source",
          "type": "string"
        }
      ],
      "name": "stringToBytes32",
      "outputs": [
        {
          "internalType": "bytes32",
          "name": "result",
          "type": "bytes32"
        }
      ],
      "stateMutability": "pure",
      "type": "function",
      "constant": true
    }
  ],
  "bytecode": "0x6080604052600160045534801561001557600080fd5b506006805473ec39a0c27b4e7f6c5a02f6aa52f7153cf8c210f16001600160a01b03199182161790915567016345785d8a00006009556002805490911673779877a7b0d9e8603169ddbd7836e478b46247891790556100ae6040518060400160405280602081526020017f663364393034633335313961343363363962306162613562366437613738663681525061011c60201b60201c565b6007556040805180820190915260208082527f3131653861623537336564653462393738623464643036313963343464343637908201526100ee9061011c565b600855600a80546001600160a01b03191673694aa1769357215de4fac081bf1f309adc325306179055610139565b805160009082906101305750600092915050565b50506020015190565b610d60806101486000396000f3fe608060405234801561001057600080fd5b50600436106100b45760003560e01c806368e963281161007157806368e963281461018e57806394ef486b14610196578063a8c8ed29146101d5578063cfb51928146101dd578063e2b0d1e5146101f0578063f77750991461020357600080fd5b80630a2559cc146100b95780632fccbcc71461011357806330214599146101285780633b2fb9aa1461013e5780634389130d146101535780635e56557f1461017b575b600080fd5b6100ee6100c736600461098d565b600b6020526000908152604090208054600182015460028301546003909301549192909184565b6040805194855260208501939093529183015260608201526080015b60405180910390f35b61011b61020b565b60405161010a91906109bd565b61013061027e565b60405190815260200161010a565b61015161014c366004610a0c565b61031c565b005b610166610161366004610a2e565b610460565b6040805192835260208301919091520161010a565b610166610189366004610a2e565b61048e565b61015161049e565b6100ee6101a436600461098d565b6001600160a01b03166000908152600b60205260409020805460018201546002830154600390930154919390929190565b6101516104d8565b6101306101eb366004610a5d565b6104ee565b6101516101fe366004610a0c565b61050b565b61011b610619565b6060600c805480602002602001604051908101604052809291908181526020016000905b828210156102755783829060005260206000209060020201604051806040016040529081600082015481526020016001820154815250508152602001906001019061022f565b50505050905090565b600080600080600080600a60009054906101000a90046001600160a01b03166001600160a01b031663feaf968c6040518163ffffffff1660e01b815260040160a06040518083038186803b1580156102d557600080fd5b505afa1580156102e9573d6000803e3d6000fd5b505050506040513d601f19601f8201168201806040525081019061030d9190610b2d565b50919998505050505050505050565b60008281526005602052604090205482906001600160a01b0316331461035d5760405162461bcd60e51b815260040161035490610b7d565b60405180910390fd5b60008181526005602052604080822080546001600160a01b03191690555182917f7cc135e0cebb02c3480ae5d74d377283180a2601f8f644edf7987b009316c63a91a2604051829084907f1ca8663227a7fe9919713a01d344afbb434e234f35a3e540a6ad924f88771f3890600090a350336000908152600b60209081526040808320600180820186905542918290558251808401909352908252918101938452600c8054928301815590925290517fdf6966c971051c3d54ec59162606531493a51404a002842f56009d7e5cf4a8c760029092029182015590517fdf6966c971051c3d54ec59162606531493a51404a002842f56009d7e5cf4a8c89091015550565b600c818154811061047057600080fd5b60009182526020909120600290910201805460019091015490915082565b600d818154811061047057600080fd5b60006104b460075430633b2fb9aa60e01b610682565b6006546009549192506104d4916001600160a01b039091169083906106a7565b5050565b60006104b46008543063e2b0d1e560e01b610682565b805160009082906105025750600092915050565b50506020015190565b60008281526005602052604090205482906001600160a01b031633146105435760405162461bcd60e51b815260040161035490610b7d565b60008181526005602052604080822080546001600160a01b03191690555182917f7cc135e0cebb02c3480ae5d74d377283180a2601f8f644edf7987b009316c63a91a250336000908152600b602090815260408083206003810185905542600291820181905582518084019093528252918101938452600d805460018101825593525191027fd7b6990105719101dabeb77144f2a3385c8033acd3af97e9423a695e81ad1eb581019190915590517fd7b6990105719101dabeb77144f2a3385c8033acd3af97e9423a695e81ad1eb69091015550565b6060600d80548060200260200160405190810160405280929190818152602001600090828210156102755783829060005260206000209060020201604051806040016040529081600082015481526020016001820154815250508152602001906001019061022f565b61068a610952565b610692610952565b61069e8186868661073a565b95945050505050565b6004546000906106b8816001610bdb565b600455835160408086015160808701515191516000936320214ca360e11b936106f09386938493923092918a91600191602401610c40565b60408051601f198184030181529190526020810180516001600160e01b03166001600160e01b031990931692909217909152905061073086838684610780565b9695505050505050565b610742610952565b61075285608001516101006108ed565b50508284526001600160a01b03821660208501526001600160e01b031981166040850152835b949350505050565b6040516bffffffffffffffffffffffff193060601b1660208201526034810184905260009060540160408051808303601f1901815282825280516020918201206000818152600590925291812080546001600160a01b0319166001600160a01b038a1617905590925082917fb5e6e01e79f91267dc17b4e6314d5d4d03593d2ceee0fbb452b750bd70ea5af99190a2600254604051630200057560e51b81526001600160a01b0390911690634000aea09061084390889087908790600401610ca8565b602060405180830381600087803b15801561085d57600080fd5b505af1158015610871573d6000803e3d6000fd5b505050506040513d601f19601f820116820180604052508101906108959190610ccf565b6107785760405162461bcd60e51b815260206004820152602360248201527f756e61626c6520746f207472616e73666572416e6443616c6c20746f206f7261604482015262636c6560e81b6064820152608401610354565b60408051808201909152606081526000602082015261090d602083610cf1565b156109355761091d602083610cf1565b610928906020610d13565b6109329083610bdb565b91505b506020828101829052604080518085526000815290920101905290565b6040805160a0810182526000808252602080830182905282840182905260608084018390528451808601909552845283015290608082015290565b60006020828403121561099f57600080fd5b81356001600160a01b03811681146109b657600080fd5b9392505050565b602080825282518282018190526000919060409081850190868401855b828110156109ff578151805185528601518685015292840192908501906001016109da565b5091979650505050505050565b60008060408385031215610a1f57600080fd5b50508035926020909101359150565b600060208284031215610a4057600080fd5b5035919050565b634e487b7160e01b600052604160045260246000fd5b600060208284031215610a6f57600080fd5b813567ffffffffffffffff80821115610a8757600080fd5b818401915084601f830112610a9b57600080fd5b813581811115610aad57610aad610a47565b604051601f8201601f19908116603f01168101908382118183101715610ad557610ad5610a47565b81604052828152876020848701011115610aee57600080fd5b826020860160208301376000928101602001929092525095945050505050565b805169ffffffffffffffffffff81168114610b2857600080fd5b919050565b600080600080600060a08688031215610b4557600080fd5b610b4e86610b0e565b9450602086015193506040860151925060608601519150610b7160808701610b0e565b90509295509295909350565b60208082526028908201527f536f75726365206d75737420626520746865206f7261636c65206f6620746865604082015267081c995c5d595cdd60c21b606082015260800190565b634e487b7160e01b600052601160045260246000fd5b60008219821115610bee57610bee610bc5565b500190565b6000815180845260005b81811015610c1957602081850181015186830182015201610bfd565b81811115610c2b576000602083870101525b50601f01601f19169290920160200192915050565b6001600160a01b0389811682526020820189905260408201889052861660608201526001600160e01b03198516608082015260a0810184905260c0810183905261010060e08201819052600090610c9983820185610bf3565b9b9a5050505050505050505050565b60018060a01b038416815282602082015260606040820152600061069e6060830184610bf3565b600060208284031215610ce157600080fd5b815180151581146109b657600080fd5b600082610d0e57634e487b7160e01b600052601260045260246000fd5b500690565b600082821015610d2557610d25610bc5565b50039056fea26469706673582212209177e020fc35935cf90b69dedd4a30e2081d7680324eaeb0ff770cb66b4c75d864736f6c63430008090033",
  "immutableReferences": {},
  "source": "// SPDX-License-Identifier: MIT\r\npragma solidity ^0.8.7;\r\n\r\nimport \"@chainlink/contracts/src/v0.8/ChainlinkClient.sol\";\r\nimport \"@chainlink/contracts/src/v0.8/interfaces/AggregatorV3Interface.sol\";\r\n\r\ncontract EnergyDataContract is ChainlinkClient {\r\n    using Chainlink for Chainlink.Request;\r\n\r\n    address private oracle;\r\n    bytes32 private productionJobId;\r\n    bytes32 private consumptionJobId;\r\n    uint256 private fee;\r\n    AggregatorV3Interface internal ethPriceFeed;\r\n\r\n    struct EnergyData {\r\n        uint256 productionTimestamp;\r\n        uint256 unitsProduced;\r\n        uint256 consumptionTimestamp;\r\n        uint256 unitsConsumed;\r\n    }\r\n\r\n    struct DataPoint {\r\n        uint256 timestamp;\r\n        uint256 value;\r\n    }\r\n\r\n    event RequestFulfilled(\r\n        bytes32 indexed requestId,\r\n        uint256 indexed _unitsProduced\r\n    );\r\n\r\n    mapping(address => EnergyData) public energyData;\r\n    DataPoint[] public productionDataPoints;\r\n    DataPoint[] public consumptionDataPoints;\r\n\r\n    constructor() {\r\n        // Hardcoding the values\r\n        oracle = 0xec39A0C27b4E7F6c5a02F6AA52F7153Cf8C210f1;\r\n        fee = 0.1 * 10 ** 18; // 0.1 LINK\r\n        setChainlinkToken(0x779877A7B0D9E8603169DdbD7836e478b4624789);\r\n        productionJobId = stringToBytes32(\"f3d904c3519a43c69b0aba5b6d7a78f6\");\r\n        consumptionJobId = stringToBytes32(\"11e8ab573ede4b978b4dd0619c44d467\");        \r\n        ethPriceFeed = AggregatorV3Interface(0x694AA1769357215DE4FAC081bf1f309aDC325306);\r\n    }\r\n\r\n    function requestEnergyProductionData() public {\r\n        Chainlink.Request memory req = buildChainlinkRequest(\r\n            productionJobId,\r\n            address(this),\r\n            this.fulfillEnergyProductionData.selector\r\n        );\r\n        sendChainlinkRequestTo(oracle, req, fee);\r\n    }\r\n\r\n    function fulfillEnergyProductionData(bytes32 _requestId, uint256 _unitsProduced) public recordChainlinkFulfillment(_requestId) {\r\n        emit RequestFulfilled(_requestId, _unitsProduced);\r\n        energyData[msg.sender].unitsProduced = _unitsProduced;\r\n        energyData[msg.sender].productionTimestamp = block.timestamp;\r\n\r\n        productionDataPoints.push(DataPoint(block.timestamp, _unitsProduced));\r\n    }\r\n\r\n    function requestEnergyConsumptionData() public {\r\n        Chainlink.Request memory req = buildChainlinkRequest(consumptionJobId, address(this), this.fulfillEnergyConsumptionData.selector);\r\n        sendChainlinkRequestTo(oracle, req, fee);\r\n    }\r\n\r\n    function fulfillEnergyConsumptionData(bytes32 _requestId, uint256 _unitsConsumed) public recordChainlinkFulfillment(_requestId) {\r\n        energyData[msg.sender].unitsConsumed = _unitsConsumed;\r\n        energyData[msg.sender].consumptionTimestamp = block.timestamp;\r\n\r\n        consumptionDataPoints.push(DataPoint(block.timestamp, _unitsConsumed));\r\n    }\r\n\r\n    function getUserEnergyData(address _address) public view returns(uint256, uint256, uint256, uint256) {\r\n        return (energyData[_address].productionTimestamp, energyData[_address].unitsProduced, energyData[_address].consumptionTimestamp, energyData[_address].unitsConsumed);\r\n    }\r\n\r\n    function getProductionDataPoints() public view returns (DataPoint[] memory) {\r\n        return productionDataPoints;\r\n    }\r\n\r\n    function getConsumptionDataPoints() public view returns (DataPoint[] memory) {\r\n        return consumptionDataPoints;\r\n    }\r\n\r\n    function getLatestEthUsdPrice() public view returns (int) {\r\n        (\r\n            uint80 roundID,\r\n            int price,\r\n            uint startedAt,\r\n            uint timeStamp,\r\n            uint80 answeredInRound\r\n        ) = ethPriceFeed.latestRoundData();\r\n        return price;\r\n    }\r\n\r\n    function stringToBytes32(string memory source) public pure returns (bytes32 result) {\r\n        bytes memory tempEmptyStringTest = bytes(source);\r\n        if (tempEmptyStringTest.length == 0) {\r\n            return 0x0;\r\n        }\r\n        assembly {\r\n            result := mload(add(source, 32))\r\n        }\r\n    }\r\n}\r\n\r\n",
  "sourcePath": "C:\\Users\\Hp\\OneDrive\\Desktop\\Energy_Trading_Blockchain-1\\backend\\nest-app\\contracts\\EnergyDataContract.sol",
  "compiler": {
    "name": "solc",
    "version": "0.8.9+commit.e5eed63a.Emscripten.clang"
  },
  "schemaVersion": "3.4.16",
  "updatedAt": "2024-11-29T17:53:22.958Z",
  "networkType": "ethereum",
  "devdoc": {
    "kind": "dev",
    "methods": {},
    "version": 1
  },
  "userdoc": {
    "kind": "user",
    "methods": {},
    "version": 1
  }
}