{
  "contractName": "MarketContract",
  "abi": [
    {
      "inputs": [
        {
          "internalType": "address",
          "name": "_userContract",
          "type": "address"
        },
        {
          "internalType": "address",
          "name": "_energyDataContract",
          "type": "address"
        }
      ],
      "stateMutability": "nonpayable",
      "type": "constructor"
    },
    {
      "anonymous": false,
      "inputs": [
        {
          "indexed": true,
          "internalType": "uint256",
          "name": "listingId",
          "type": "uint256"
        },
        {
          "indexed": true,
          "internalType": "address",
          "name": "buyer",
          "type": "address"
        },
        {
          "indexed": true,
          "internalType": "address",
          "name": "seller",
          "type": "address"
        },
        {
          "indexed": false,
          "internalType": "uint256",
          "name": "units",
          "type": "uint256"
        },
        {
          "indexed": false,
          "internalType": "uint256",
          "name": "totalCost",
          "type": "uint256"
        }
      ],
      "name": "PurchaseEvent",
      "type": "event"
    },
    {
      "inputs": [],
      "name": "energyDataContract",
      "outputs": [
        {
          "internalType": "contract EnergyDataContract",
          "name": "",
          "type": "address"
        }
      ],
      "stateMutability": "view",
      "type": "function",
      "constant": true
    },
    {
      "inputs": [
        {
          "internalType": "uint256",
          "name": "",
          "type": "uint256"
        }
      ],
      "name": "listings",
      "outputs": [
        {
          "internalType": "address",
          "name": "seller",
          "type": "address"
        },
        {
          "internalType": "uint256",
          "name": "units",
          "type": "uint256"
        },
        {
          "internalType": "uint256",
          "name": "pricePerUnit",
          "type": "uint256"
        },
        {
          "internalType": "bool",
          "name": "active",
          "type": "bool"
        }
      ],
      "stateMutability": "view",
      "type": "function",
      "constant": true
    },
    {
      "inputs": [
        {
          "internalType": "uint256",
          "name": "",
          "type": "uint256"
        }
      ],
      "name": "transactions",
      "outputs": [
        {
          "internalType": "address",
          "name": "buyer",
          "type": "address"
        },
        {
          "internalType": "address",
          "name": "seller",
          "type": "address"
        },
        {
          "internalType": "uint256",
          "name": "units",
          "type": "uint256"
        },
        {
          "internalType": "uint256",
          "name": "totalCost",
          "type": "uint256"
        }
      ],
      "stateMutability": "view",
      "type": "function",
      "constant": true
    },
    {
      "inputs": [],
      "name": "userContract",
      "outputs": [
        {
          "internalType": "contract UserContract",
          "name": "",
          "type": "address"
        }
      ],
      "stateMutability": "view",
      "type": "function",
      "constant": true
    },
    {
      "inputs": [
        {
          "internalType": "uint256",
          "name": "units",
          "type": "uint256"
        },
        {
          "internalType": "uint256",
          "name": "pricePerUnit",
          "type": "uint256"
        }
      ],
      "name": "addListing",
      "outputs": [],
      "stateMutability": "nonpayable",
      "type": "function"
    },
    {
      "inputs": [
        {
          "internalType": "uint256",
          "name": "listingId",
          "type": "uint256"
        }
      ],
      "name": "purchase",
      "outputs": [],
      "stateMutability": "payable",
      "type": "function",
      "payable": true
    },
    {
      "inputs": [],
      "name": "getListingCount",
      "outputs": [
        {
          "internalType": "uint256",
          "name": "",
          "type": "uint256"
        }
      ],
      "stateMutability": "view",
      "type": "function",
      "constant": true
    }
  ],
  "bytecode": "0x608060405234801561001057600080fd5b5060405161094538038061094583398101604081905261002f9161007c565b600080546001600160a01b039384166001600160a01b031991821617909155600180549290931691161790556100af565b80516001600160a01b038116811461007757600080fd5b919050565b6000806040838503121561008f57600080fd5b61009883610060565b91506100a660208401610060565b90509250929050565b610887806100be6000396000f3fe6080604052600436106100705760003560e01c806387ed92d71161004e57806387ed92d7146100f45780639ace38c214610112578063de74e57b1461015d578063efef39a1146101a957600080fd5b8063423db5d3146100755780635000596b146100b2578063836cf6e9146100d2575b600080fd5b34801561008157600080fd5b50600154610095906001600160a01b031681565b6040516001600160a01b0390911681526020015b60405180910390f35b3480156100be57600080fd5b50600054610095906001600160a01b031681565b3480156100de57600080fd5b506100f26100ed366004610795565b6101bc565b005b34801561010057600080fd5b506003546040519081526020016100a9565b34801561011e57600080fd5b5061013261012d3660046107b7565b61039a565b604080516001600160a01b0395861681529490931660208501529183015260608201526080016100a9565b34801561016957600080fd5b5061017d6101783660046107b7565b6103e0565b604080516001600160a01b039095168552602085019390935291830152151560608201526080016100a9565b6100f26101b73660046107b7565b610427565b60008054604051632782085160e01b81523360048201526001600160a01b039091169063278208519060240160206040518083038186803b15801561020057600080fd5b505afa158015610214573d6000803e3d6000fd5b505050506040513d601f19601f8201168201806040525081019061023891906107d0565b9050600181600181111561024e5761024e6107f8565b146102a05760405162461bcd60e51b815260206004820152601d60248201527f4f6e6c792073656c6c6572732063616e20616464206c697374696e677300000060448201526064015b60405180910390fd5b50604080516080810182523381526020810193845290810191825260016060820181815260038054928301815560005291517fc2575a0e9e593c00f959f8c92f12db2869c3395a3b0502d05e2516446f71f85b600490920291820180546001600160a01b0319166001600160a01b0390921691909117905592517fc2575a0e9e593c00f959f8c92f12db2869c3395a3b0502d05e2516446f71f85c84015590517fc2575a0e9e593c00f959f8c92f12db2869c3395a3b0502d05e2516446f71f85d830155517fc2575a0e9e593c00f959f8c92f12db2869c3395a3b0502d05e2516446f71f85e909101805460ff1916911515919091179055565b600281815481106103aa57600080fd5b600091825260209091206004909102018054600182015460028301546003909301546001600160a01b0392831694509116919084565b600381815481106103f057600080fd5b600091825260209091206004909102018054600182015460028301546003909301546001600160a01b039092169350919060ff1684565b60006003828154811061043c5761043c61080e565b6000918252602082208254604051632782085160e01b8152336004808301919091529390930290910193506001600160a01b03169063278208519060240160206040518083038186803b15801561049257600080fd5b505afa1580156104a6573d6000803e3d6000fd5b505050506040513d601f19601f820116820180604052508101906104ca91906107d0565b600383015490915060ff166105195760405162461bcd60e51b81526020600482015260156024820152744c697374696e67206973206e6f742061637469766560581b6044820152606401610297565b600081600181111561052d5761052d6107f8565b1461057a5760405162461bcd60e51b815260206004820152601860248201527f4f6e6c79206275796572732063616e20707572636861736500000000000000006044820152606401610297565b6000826001015483600201546105909190610824565b90508034146106075760405162461bcd60e51b815260206004820152603960248201527f5468652073656e7420657468657220616d6f756e74206d75737420657175616c60448201527f202870726963652070657220756e6974202a20756e69747329000000000000006064820152608401610297565b60038301805460ff191690556040805160808101825233815284546001600160a01b0390811660208301908152600180880154848601908152606085018781526002805493840181556000908152955160049093027f405787fa12a823e0f2b7631cc41b3ba8828b3321ca811111fa75cd3aa3bb5ace810180549487166001600160a01b031995861617905593517f405787fa12a823e0f2b7631cc41b3ba8828b3321ca811111fa75cd3aa3bb5acf850180549187169190941617909255517f405787fa12a823e0f2b7631cc41b3ba8828b3321ca811111fa75cd3aa3bb5ad0830155517f405787fa12a823e0f2b7631cc41b3ba8828b3321ca811111fa75cd3aa3bb5ad1909101558554925192169183156108fc0291849190818181858888f1935050505015801561073e573d6000803e3d6000fd5b508254600184015460408051918252602082018490526001600160a01b0390921691339187917f08924678056497e7b16f05c6afd439f90adf77a23b24b36cfda3fa6750fd0812910160405180910390a450505050565b600080604083850312156107a857600080fd5b50508035926020909101359150565b6000602082840312156107c957600080fd5b5035919050565b6000602082840312156107e257600080fd5b8151600281106107f157600080fd5b9392505050565b634e487b7160e01b600052602160045260246000fd5b634e487b7160e01b600052603260045260246000fd5b600081600019048311821515161561084c57634e487b7160e01b600052601160045260246000fd5b50029056fea2646970667358221220be673702c38dedde3de3a640fa5f06d843e0a2e265472716604851a14877a7c864736f6c63430008090033",
  "immutableReferences": {},
  "source": "// SPDX-License-Identifier: MIT\r\npragma solidity ^0.8.0;\r\n\r\nimport \"@chainlink/contracts/src/v0.8/ChainlinkClient.sol\";\r\nimport \"./UserContract.sol\";\r\nimport \"./EnergyDataContract.sol\";\r\n\r\ncontract MarketContract {\r\n    struct Listing {\r\n        address seller;\r\n        uint256 units;\r\n        uint256 pricePerUnit;\r\n        bool active;\r\n    }\r\n\r\n    struct Transaction {\r\n        address buyer;\r\n        address seller;\r\n        uint256 units;\r\n        uint256 totalCost;\r\n    }\r\n\r\n    UserContract public userContract;\r\n    EnergyDataContract public energyDataContract;\r\n\r\n    Transaction[] public transactions;\r\n    Listing[] public listings;\r\n\r\n    // Define an Event\r\n    event PurchaseEvent(uint256 indexed listingId, address indexed buyer, address indexed seller, uint256 units, uint256 totalCost);\r\n\r\n    constructor(address _userContract, address _energyDataContract) {\r\n        userContract = UserContract(_userContract);\r\n        energyDataContract = EnergyDataContract(_energyDataContract);\r\n    }\r\n\r\n    function addListing(uint256 units, uint256 pricePerUnit) public {\r\n        UserContract.Role role = userContract.getUserRole(msg.sender);\r\n        require(role == UserContract.Role.Seller, \"Only sellers can add listings\");   \r\n        listings.push(Listing(msg.sender, units, pricePerUnit, true));\r\n    }\r\n\r\n    function purchase(uint256 listingId) public payable {\r\n        Listing storage listing = listings[listingId];\r\n        UserContract.Role role = userContract.getUserRole(msg.sender);\r\n\r\n        require(listing.active, \"Listing is not active\");\r\n        require(role == UserContract.Role.Buyer, \"Only buyers can purchase\");\r\n        \r\n        uint256 totalCost = listing.pricePerUnit * listing.units;\r\n        require(msg.value == totalCost, \"The sent ether amount must equal (price per unit * units)\");\r\n\r\n        listing.active = false;\r\n        transactions.push(Transaction(msg.sender, listing.seller, listing.units, totalCost));\r\n\r\n        payable(listing.seller).transfer(totalCost);\r\n\r\n        // Emit the PurchaseEvent\r\n        emit PurchaseEvent(listingId, msg.sender, listing.seller, listing.units, totalCost);\r\n    }\r\n\r\n    function getListingCount() public view returns (uint) {\r\n        return listings.length;\r\n    }\r\n}\r\n",
  "sourcePath": "C:\\Users\\Hp\\OneDrive\\Desktop\\Energy_Trading_Blockchain-1\\backend\\nest-app\\contracts\\MarketContract.sol",
  "compiler": {
    "name": "solc",
    "version": "0.8.9+commit.e5eed63a.Emscripten.clang"
  },
  "schemaVersion": "3.4.16",
  "updatedAt": "2024-11-29T17:53:23.021Z",
  "networkType": "ethereum",
  "devdoc": {
    "kind": "dev",
    "methods": {},
    "version": 1
  },
  "userdoc": {
    "kind": "user",
    "methods": {},
    "version": 1
  }
}