{
  "contractName": "MarketContract",
  "abi": [
    {
      "inputs": [
        {
          "internalType": "address",
          "name": "_userContract",
          "type": "address"
        }
      ],
      "stateMutability": "nonpayable",
      "type": "constructor"
    },
    {
      "anonymous": false,
      "inputs": [
        {
          "indexed": false,
          "internalType": "uint256",
          "name": "pricePerUnit",
          "type": "uint256"
        },
        {
          "indexed": false,
          "internalType": "uint256",
          "name": "units",
          "type": "uint256"
        },
        {
          "indexed": false,
          "internalType": "uint256",
          "name": "msgValue",
          "type": "uint256"
        }
      ],
      "name": "DebugValues",
      "type": "event"
    },
    {
      "anonymous": false,
      "inputs": [
        {
          "indexed": true,
          "internalType": "uint256",
          "name": "listingId",
          "type": "uint256"
        },
        {
          "indexed": true,
          "internalType": "address",
          "name": "buyer",
          "type": "address"
        },
        {
          "indexed": true,
          "internalType": "address",
          "name": "seller",
          "type": "address"
        },
        {
          "indexed": false,
          "internalType": "uint256",
          "name": "units",
          "type": "uint256"
        },
        {
          "indexed": false,
          "internalType": "uint256",
          "name": "totalCost",
          "type": "uint256"
        }
      ],
      "name": "PurchaseEvent",
      "type": "event"
    },
    {
      "inputs": [
        {
          "internalType": "uint256",
          "name": "",
          "type": "uint256"
        }
      ],
      "name": "listings",
      "outputs": [
        {
          "internalType": "address",
          "name": "seller",
          "type": "address"
        },
        {
          "internalType": "uint256",
          "name": "units",
          "type": "uint256"
        },
        {
          "internalType": "uint256",
          "name": "pricePerUnit",
          "type": "uint256"
        },
        {
          "internalType": "bool",
          "name": "active",
          "type": "bool"
        }
      ],
      "stateMutability": "view",
      "type": "function"
    },
    {
      "inputs": [
        {
          "internalType": "uint256",
          "name": "",
          "type": "uint256"
        }
      ],
      "name": "transactions",
      "outputs": [
        {
          "internalType": "address",
          "name": "buyer",
          "type": "address"
        },
        {
          "internalType": "address",
          "name": "seller",
          "type": "address"
        },
        {
          "internalType": "uint256",
          "name": "units",
          "type": "uint256"
        },
        {
          "internalType": "uint256",
          "name": "totalCost",
          "type": "uint256"
        }
      ],
      "stateMutability": "view",
      "type": "function"
    },
    {
      "inputs": [],
      "name": "userContract",
      "outputs": [
        {
          "internalType": "contract UserContract",
          "name": "",
          "type": "address"
        }
      ],
      "stateMutability": "view",
      "type": "function"
    },
    {
      "inputs": [
        {
          "internalType": "uint256",
          "name": "units",
          "type": "uint256"
        },
        {
          "internalType": "uint256",
          "name": "pricePerUnit",
          "type": "uint256"
        }
      ],
      "name": "addListing",
      "outputs": [],
      "stateMutability": "nonpayable",
      "type": "function"
    },
    {
      "inputs": [
        {
          "internalType": "uint256",
          "name": "listingId",
          "type": "uint256"
        }
      ],
      "name": "purchase",
      "outputs": [],
      "stateMutability": "payable",
      "type": "function"
    },
    {
      "inputs": [],
      "name": "getListingCount",
      "outputs": [
        {
          "internalType": "uint256",
          "name": "",
          "type": "uint256"
        }
      ],
      "stateMutability": "view",
      "type": "function"
    }
  ],
  "bytecode": "0x608060405234801561001057600080fd5b50604051610a01380380610a0183398101604081905261002f91610054565b600080546001600160a01b0319166001600160a01b0392909216919091179055610084565b60006020828403121561006657600080fd5b81516001600160a01b038116811461007d57600080fd5b9392505050565b61096e806100936000396000f3fe6080604052600436106100555760003560e01c80635000596b1461005a578063836cf6e91461009757806387ed92d7146100b95780639ace38c2146100d7578063de74e57b14610122578063efef39a11461016e575b600080fd5b34801561006657600080fd5b5060005461007a906001600160a01b031681565b6040516001600160a01b0390911681526020015b60405180910390f35b3480156100a357600080fd5b506100b76100b236600461087c565b610181565b005b3480156100c557600080fd5b5060025460405190815260200161008e565b3480156100e357600080fd5b506100f76100f236600461089e565b610425565b604080516001600160a01b03958616815294909316602085015291830152606082015260800161008e565b34801561012e57600080fd5b5061014261013d36600461089e565b61046b565b604080516001600160a01b0390951685526020850193909352918301521515606082015260800161008e565b6100b761017c36600461089e565b6104b2565b600082116101e75760405162461bcd60e51b815260206004820152602860248201527f5468652056616c7565206f6620556e697473206d757374206265206869676865604482015267072207468616e20360c41b60648201526084015b60405180910390fd5b6000811161024c5760405162461bcd60e51b815260206004820152602c60248201527f5468652076616c7565206f6620746865207072696365206d757374206265206860448201526b06967686572207468616e20360a41b60648201526084016101de565b60008054604051632782085160e01b81523360048201526001600160a01b039091169063278208519060240160206040518083038186803b15801561029057600080fd5b505afa1580156102a4573d6000803e3d6000fd5b505050506040513d601f19601f820116820180604052508101906102c891906108b7565b905060018160018111156102de576102de6108df565b1461032b5760405162461bcd60e51b815260206004820152601d60248201527f4f6e6c792073656c6c6572732063616e20616464206c697374696e677300000060448201526064016101de565b50604080516080810182523381526020810193845290810191825260016060820181815260028054928301815560005291517f405787fa12a823e0f2b7631cc41b3ba8828b3321ca811111fa75cd3aa3bb5ace600490920291820180546001600160a01b0319166001600160a01b0390921691909117905592517f405787fa12a823e0f2b7631cc41b3ba8828b3321ca811111fa75cd3aa3bb5acf84015590517f405787fa12a823e0f2b7631cc41b3ba8828b3321ca811111fa75cd3aa3bb5ad0830155517f405787fa12a823e0f2b7631cc41b3ba8828b3321ca811111fa75cd3aa3bb5ad1909101805460ff1916911515919091179055565b6001818154811061043557600080fd5b600091825260209091206004909102018054600182015460028301546003909301546001600160a01b0392831694509116919084565b6002818154811061047b57600080fd5b600091825260209091206004909102018054600182015460028301546003909301546001600160a01b039092169350919060ff1684565b6000600282815481106104c7576104c76108f5565b60009182526020909120600490910201600381015490915060ff166105265760405162461bcd60e51b81526020600482015260156024820152744c697374696e67206973206e6f742061637469766560581b60448201526064016101de565b6000816001015411801561053e575060008160020154115b6105835760405162461bcd60e51b8152602060048201526016602482015275496e76616c6964206c697374696e672076616c75657360501b60448201526064016101de565b60008054604051632782085160e01b81523360048201526001600160a01b039091169063278208519060240160206040518083038186803b1580156105c757600080fd5b505afa1580156105db573d6000803e3d6000fd5b505050506040513d601f19601f820116820180604052508101906105ff91906108b7565b90506000816001811115610615576106156108df565b146106625760405162461bcd60e51b815260206004820152601860248201527f4f6e6c79206275796572732063616e207075726368617365000000000000000060448201526064016101de565b600082600101548360020154610678919061090b565b90508034146106ef5760405162461bcd60e51b815260206004820152603960248201527f5468652073656e7420657468657220616d6f756e74206d75737420657175616c60448201527f202870726963652070657220756e6974202a20756e697473290000000000000060648201526084016101de565b60038301805460ff191690556040805160808101825233815284546001600160a01b039081166020830190815260018088015484860190815260608501878152825480840184556000938452955160049096027fb10e2d527612073b26eecdfd717e6a320cf44b4afac2b0732d9fcbe2b7fa0cf6810180549787166001600160a01b031998891617905593517fb10e2d527612073b26eecdfd717e6a320cf44b4afac2b0732d9fcbe2b7fa0cf7850180549187169190971617909555517fb10e2d527612073b26eecdfd717e6a320cf44b4afac2b0732d9fcbe2b7fa0cf883015592517fb10e2d527612073b26eecdfd717e6a320cf44b4afac2b0732d9fcbe2b7fa0cf9909101558554925192169183156108fc0291849190818181858888f19350505050158015610825573d6000803e3d6000fd5b508254600184015460408051918252602082018490526001600160a01b0390921691339187917f08924678056497e7b16f05c6afd439f90adf77a23b24b36cfda3fa6750fd0812910160405180910390a450505050565b6000806040838503121561088f57600080fd5b50508035926020909101359150565b6000602082840312156108b057600080fd5b5035919050565b6000602082840312156108c957600080fd5b8151600281106108d857600080fd5b9392505050565b634e487b7160e01b600052602160045260246000fd5b634e487b7160e01b600052603260045260246000fd5b600081600019048311821515161561093357634e487b7160e01b600052601160045260246000fd5b50029056fea2646970667358221220733106454594a1733fe48ac56abe1eb3612813755734c52621acec35a8407b9564736f6c63430008090033",
  "immutableReferences": {},
  "source": "// SPDX-License-Identifier: MIT\r\npragma solidity ^0.8.0;\r\n\r\nimport \"./UserContract.sol\";\r\n\r\ncontract MarketContract {\r\n    struct Listing {\r\n        address seller;\r\n        uint256 units;\r\n        uint256 pricePerUnit;\r\n        bool active;\r\n    }\r\n\r\n    struct Transaction {\r\n        address buyer;\r\n        address seller;\r\n        uint256 units;\r\n        uint256 totalCost;\r\n    }\r\n\r\n    UserContract public userContract;\r\n\r\n    Transaction[] public transactions;\r\n    Listing[] public listings;\r\n\r\n    // Define an Event\r\n    event PurchaseEvent(\r\n        uint256 indexed listingId,\r\n        address indexed buyer,\r\n        address indexed seller,\r\n        uint256 units,\r\n        uint256 totalCost\r\n    );\r\n\r\n    event DebugValues(uint256 pricePerUnit, uint256 units, uint256 msgValue);\r\n\r\n    constructor(address _userContract) {\r\n        userContract = UserContract(_userContract);\r\n    }\r\n\r\n    function addListing(uint256 units, uint256 pricePerUnit) public {\r\n        require(units > 0, \"The Value of Units must be higher than 0\");\r\n        require(pricePerUnit > 0, \"The value of the price must be higher than 0\");\r\n\r\n        UserContract.Role role = userContract.getUserRole(msg.sender);\r\n\r\n        require(\r\n            role == UserContract.Role.Seller,\r\n            \"Only sellers can add listings\"\r\n        );\r\n        listings.push(Listing(msg.sender, units, pricePerUnit, true));\r\n    }\r\n\r\n    function purchase(uint256 listingId) public payable {\r\n        Listing storage listing = listings[listingId];\r\n\r\n        require(listing.active, \"Listing is not active\");\r\n        require(\r\n            listing.units > 0 && listing.pricePerUnit > 0,\r\n            \"Invalid listing values\"\r\n        );\r\n\r\n        UserContract.Role role = userContract.getUserRole(msg.sender);\r\n        require(role == UserContract.Role.Buyer, \"Only buyers can purchase\");\r\n\r\n        uint256 totalCost = listing.pricePerUnit * listing.units;\r\n        require(\r\n            msg.value == totalCost,\r\n            \"The sent ether amount must equal (price per unit * units)\"\r\n        );\r\n\r\n        // Mark the listing as inactive before transferring funds\r\n        listing.active = false;\r\n\r\n        // Record the transaction\r\n        transactions.push(\r\n            Transaction(msg.sender, listing.seller, listing.units, totalCost)\r\n        );\r\n\r\n        // Transfer funds\r\n        payable(listing.seller).transfer(totalCost);\r\n\r\n        // Emit the purchase event\r\n        emit PurchaseEvent(\r\n            listingId,\r\n            msg.sender,\r\n            listing.seller,\r\n            listing.units,\r\n            totalCost\r\n        );\r\n    }\r\n\r\n    function getListingCount() public view returns (uint256) {\r\n        return listings.length;\r\n    }\r\n}\r\n",
  "sourcePath": "/Users/euron/Desktop/Personal_projects/Blockchain-Based Energy MarketPlace/Blockchain-Based-Energy-MarketPlace/backend/nest-app/contracts/MarketContract.sol",
  "compiler": {
    "name": "solc",
    "version": "0.8.9+commit.e5eed63a.Emscripten.clang"
  },
  "schemaVersion": "3.4.16",
  "updatedAt": "2025-01-03T08:48:09.281Z",
  "devdoc": {
    "kind": "dev",
    "methods": {},
    "version": 1
  },
  "userdoc": {
    "kind": "user",
    "methods": {},
    "version": 1
  }
}