{
  "contractName": "UserContract",
  "abi": [
    {
      "inputs": [
        {
          "internalType": "address",
          "name": "",
          "type": "address"
        }
      ],
      "name": "users",
      "outputs": [
        {
          "internalType": "enum UserContract.Role",
          "name": "",
          "type": "uint8"
        }
      ],
      "stateMutability": "view",
      "type": "function",
      "constant": true
    },
    {
      "inputs": [],
      "name": "becomeSeller",
      "outputs": [],
      "stateMutability": "nonpayable",
      "type": "function"
    },
    {
      "inputs": [
        {
          "internalType": "address",
          "name": "_address",
          "type": "address"
        }
      ],
      "name": "getUserRole",
      "outputs": [
        {
          "internalType": "enum UserContract.Role",
          "name": "",
          "type": "uint8"
        }
      ],
      "stateMutability": "view",
      "type": "function",
      "constant": true
    }
  ],
  "bytecode": "0x608060405234801561001057600080fd5b5061019e806100206000396000f3fe608060405234801561001057600080fd5b50600436106100415760003560e01c806327820851146100465780638f299b1e1461006f578063a87430ba14610090575b600080fd5b6100596100543660046100fa565b6100b3565b6040516100669190610140565b60405180910390f35b61008e336000908152602081905260409020805460ff19166001179055565b005b61005961009e3660046100fa565b60006020819052908152604090205460ff1681565b600060016001600160a01b03831660009081526020819052604090205460ff1660018111156100e4576100e461012a565b14156100f257506001919050565b506000919050565b60006020828403121561010c57600080fd5b81356001600160a01b038116811461012357600080fd5b9392505050565b634e487b7160e01b600052602160045260246000fd5b602081016002831061016257634e487b7160e01b600052602160045260246000fd5b9190529056fea26469706673582212204416fd9e0794b106c0400aa72b5cd5818bdf6a5096485046cdd617b68a01095964736f6c63430008090033",
  "immutableReferences": {},
  "source": "// SPDX-License-Identifier: MIT\r\npragma solidity ^0.8.0;\r\n\r\ncontract UserContract {\r\n    enum Role { Buyer, Seller }\r\n\r\n    mapping(address => Role) public users;\r\n\r\n    function becomeSeller() public {\r\n        users[msg.sender] = Role.Seller;\r\n    }\r\n\r\n    function getUserRole(address _address) public view returns(Role) {\r\n        if(users[_address] == Role.Seller) {\r\n            return Role.Seller;\r\n        } else {\r\n            return Role.Buyer;\r\n        }\r\n    }\r\n}\r\n\r\n\r\n\r\n\r\n\r\n",
  "sourcePath": "C:\\Users\\Hp\\OneDrive\\Desktop\\Energy_Trading_Blockchain-1\\backend\\nest-app\\contracts\\UserContract.sol",
  "compiler": {
    "name": "solc",
    "version": "0.8.9+commit.e5eed63a.Emscripten.clang"
  },
  "schemaVersion": "3.4.16",
  "updatedAt": "2024-11-29T17:53:22.942Z",
  "networkType": "ethereum",
  "devdoc": {
    "kind": "dev",
    "methods": {},
    "version": 1
  },
  "userdoc": {
    "kind": "user",
    "methods": {},
    "version": 1
  }
}