{
  "contractName": "UserContract",
  "abi": [
    {
      "inputs": [
        {
          "internalType": "address",
          "name": "",
          "type": "address"
        }
      ],
      "name": "users",
      "outputs": [
        {
          "internalType": "enum UserContract.Role",
          "name": "",
          "type": "uint8"
        }
      ],
      "stateMutability": "view",
      "type": "function",
      "constant": true
    },
    {
      "inputs": [],
      "name": "becomeSeller",
      "outputs": [],
      "stateMutability": "nonpayable",
      "type": "function"
    },
    {
      "inputs": [],
      "name": "becomeBuyer",
      "outputs": [],
      "stateMutability": "nonpayable",
      "type": "function"
    },
    {
      "inputs": [
        {
          "internalType": "address",
          "name": "_address",
          "type": "address"
        }
      ],
      "name": "getUserRole",
      "outputs": [
        {
          "internalType": "enum UserContract.Role",
          "name": "",
          "type": "uint8"
        }
      ],
      "stateMutability": "view",
      "type": "function",
      "constant": true
    }
  ],
  "bytecode": "0x608060405234801561001057600080fd5b506101da806100206000396000f3fe608060405234801561001057600080fd5b506004361061004c5760003560e01c8063128fdb4814610051578063278208511461005b5780638f299b1e14610084578063a87430ba1461008c575b600080fd5b6100596100af565b005b61006e610069366004610136565b6100cf565b60405161007b919061017c565b60405180910390f35b610059610116565b61006e61009a366004610136565b60006020819052908152604090205460ff1681565b336000908152602081905260408120805460ff19166001835b0217905550565b600060016001600160a01b03831660009081526020819052604090205460ff16600181111561010057610100610166565b141561010e57506001919050565b506000919050565b33600090815260208190526040902080546001919060ff191682806100c8565b60006020828403121561014857600080fd5b81356001600160a01b038116811461015f57600080fd5b9392505050565b634e487b7160e01b600052602160045260246000fd5b602081016002831061019e57634e487b7160e01b600052602160045260246000fd5b9190529056fea264697066735822122003eae25a08f0d3e6c5dc062ee898c429157044f0f82ae28abd764c2ac4b8f9eb64736f6c63430008090033",
  "immutableReferences": {},
  "source": "// SPDX-License-Identifier: MIT\r\npragma solidity ^0.8.0;\r\n\r\ncontract UserContract {\r\n    enum Role {\r\n        Buyer,\r\n        Seller\r\n    }\r\n\r\n    mapping(address => Role) public users;\r\n\r\n    function becomeSeller() public {\r\n        users[msg.sender] = Role.Seller;\r\n    }\r\n\r\n    function becomeBuyer() public {\r\n        users[msg.sender] = Role.Buyer;\r\n    }\r\n\r\n    function getUserRole(address _address) public view returns (Role) {\r\n        if (users[_address] == Role.Seller) {\r\n            return Role.Seller;\r\n        } else {\r\n            return Role.Buyer;\r\n        }\r\n    }\r\n}",
  "sourcePath": "C:\\Users\\Hp\\OneDrive\\Desktop\\Blockchain-Based-Energy-MarketPlace\\backend\\nest-app\\contracts\\UserContract.sol",
  "compiler": {
    "name": "solc",
    "version": "0.8.9+commit.e5eed63a.Emscripten.clang"
  },
  "schemaVersion": "3.4.16",
  "updatedAt": "2024-12-17T10:16:47.755Z",
  "networkType": "ethereum",
  "devdoc": {
    "kind": "dev",
    "methods": {},
    "version": 1
  },
  "userdoc": {
    "kind": "user",
    "methods": {},
    "version": 1
  }
}